{
  "_format": "hh-sol-artifact-1",
  "contractName": "TPG",
  "sourceName": "contracts/TPG.sol",
  "abi": [
    {
      "inputs": [],
      "stateMutability": "nonpayable",
      "type": "constructor"
    },
    {
      "inputs": [],
      "name": "getTreasuryBalance",
      "outputs": [
        {
          "internalType": "uint256",
          "name": "",
          "type": "uint256"
        }
      ],
      "stateMutability": "view",
      "type": "function"
    },
    {
      "inputs": [],
      "name": "mintMembership",
      "outputs": [],
      "stateMutability": "payable",
      "type": "function"
    },
    {
      "inputs": [
        {
          "internalType": "address",
          "name": "",
          "type": "address"
        },
        {
          "internalType": "address",
          "name": "",
          "type": "address"
        },
        {
          "internalType": "uint256",
          "name": "",
          "type": "uint256"
        },
        {
          "internalType": "bytes",
          "name": "",
          "type": "bytes"
        }
      ],
      "name": "onERC721Received",
      "outputs": [
        {
          "internalType": "bytes4",
          "name": "",
          "type": "bytes4"
        }
      ],
      "stateMutability": "nonpayable",
      "type": "function"
    }
  ],
  "bytecode": "0x6080604052670de0b6b3a764000060025534801561001c57600080fd5b50604051610029906100f3565b604051809103906000f080158015610045573d6000803e3d6000fd5b506000806101000a81548173ffffffffffffffffffffffffffffffffffffffff021916908373ffffffffffffffffffffffffffffffffffffffff16021790555060405161009190610100565b604051809103906000f0801580156100ad573d6000803e3d6000fd5b50600160006101000a81548173ffffffffffffffffffffffffffffffffffffffff021916908373ffffffffffffffffffffffffffffffffffffffff16021790555061010d565b6129258061090683390190565b6101918061322b83390190565b6107ea8061011c6000396000f3fe6080604052600436106100345760003560e01c8063150b7a021461003957806371231908146100765780639b5655dc14610080575b600080fd5b34801561004557600080fd5b50610060600480360381019061005b919061046a565b6100ab565b60405161006d91906105d5565b60405180910390f35b61007e6100bf565b005b34801561008c57600080fd5b50610095610307565b6040516100a29190610630565b60405180910390f35b600063150b7a0260e01b9050949350505050565b600254341015610104576040517f08c379a00000000000000000000000000000000000000000000000000000000081526004016100fb906105f0565b60405180910390fd5b60008054906101000a900473ffffffffffffffffffffffffffffffffffffffff1673ffffffffffffffffffffffffffffffffffffffff166390d7a8936040518163ffffffff1660e01b815260040160206040518083038186803b15801561016a57600080fd5b505afa15801561017e573d6000803e3d6000fd5b505050506040513d601f19601f820116820180604052508101906101a291906104e5565b6101e1576040517f08c379a00000000000000000000000000000000000000000000000000000000081526004016101d890610610565b60405180910390fd5b60008054906101000a900473ffffffffffffffffffffffffffffffffffffffff1673ffffffffffffffffffffffffffffffffffffffff1663712319086040518163ffffffff1660e01b8152600401602060405180830381600087803b15801561024957600080fd5b505af115801561025d573d6000803e3d6000fd5b505050506040513d601f19601f82011682018060405250810190610281919061050e565b50600160009054906101000a900473ffffffffffffffffffffffffffffffffffffffff1673ffffffffffffffffffffffffffffffffffffffff1663d0e30db0346040518263ffffffff1660e01b81526004016000604051808303818588803b1580156102ec57600080fd5b505af1158015610300573d6000803e3d6000fd5b5050505050565b6000600160009054906101000a900473ffffffffffffffffffffffffffffffffffffffff1673ffffffffffffffffffffffffffffffffffffffff166312065fe06040518163ffffffff1660e01b815260040160206040518083038186803b15801561037157600080fd5b505afa158015610385573d6000803e3d6000fd5b505050506040513d601f19601f820116820180604052508101906103a9919061050e565b905090565b60006103c16103bc8461067c565b61064b565b9050828152602081018484840111156103d957600080fd5b6103e4848285610731565b509392505050565b6000813590506103fb8161076f565b92915050565b60008151905061041081610786565b92915050565b600082601f83011261042757600080fd5b81356104378482602086016103ae565b91505092915050565b60008135905061044f8161079d565b92915050565b6000815190506104648161079d565b92915050565b6000806000806080858703121561048057600080fd5b600061048e878288016103ec565b945050602061049f878288016103ec565b93505060406104b087828801610440565b925050606085013567ffffffffffffffff8111156104cd57600080fd5b6104d987828801610416565b91505092959194509250565b6000602082840312156104f757600080fd5b600061050584828501610401565b91505092915050565b60006020828403121561052057600080fd5b600061052e84828501610455565b91505092915050565b610540816106db565b82525050565b60006105536013836106ac565b91507f4d696e74207072696365206e6f74206d65742e000000000000000000000000006000830152602082019050919050565b60006105936019836106ac565b91507f416c6c206d656d626572736869707320636f6e73756d65642e000000000000006000830152602082019050919050565b6105cf81610727565b82525050565b60006020820190506105ea6000830184610537565b92915050565b6000602082019050818103600083015261060981610546565b9050919050565b6000602082019050818103600083015261062981610586565b9050919050565b600060208201905061064560008301846105c6565b92915050565b6000604051905081810181811067ffffffffffffffff8211171561067257610671610740565b5b8060405250919050565b600067ffffffffffffffff82111561069757610696610740565b5b601f19601f8301169050602081019050919050565b600082825260208201905092915050565b60006106c882610707565b9050919050565b60008115159050919050565b60007fffffffff0000000000000000000000000000000000000000000000000000000082169050919050565b600073ffffffffffffffffffffffffffffffffffffffff82169050919050565b6000819050919050565b82818337600083830152505050565b7f4e487b7100000000000000000000000000000000000000000000000000000000600052604160045260246000fd5b610778816106bd565b811461078357600080fd5b50565b61078f816106cf565b811461079a57600080fd5b50565b6107a681610727565b81146107b157600080fd5b5056fea26469706673582212200c675e22bb81c4ab729dd916ae06db0b32644bdc5e43317697cbeb50a22d89ea64736f6c6343000800003360806040523480156200001157600080fd5b506040518060400160405280601b81526020017f5468652050656f706c6527732047796d204d656d6265727368697000000000008152506040518060400160405280600381526020017f5450470000000000000000000000000000000000000000000000000000000000815250816000908051906020019062000096929190620000c0565b508060019080519060200190620000af929190620000c0565b5050506000600681905550620001d5565b828054620000ce9062000170565b90600052602060002090601f016020900481019282620000f257600085556200013e565b82601f106200010d57805160ff19168380011785556200013e565b828001600101855582156200013e579182015b828111156200013d57825182559160200191906001019062000120565b5b5090506200014d919062000151565b5090565b5b808211156200016c57600081600090555060010162000152565b5090565b600060028204905060018216806200018957607f821691505b60208210811415620001a0576200019f620001a6565b5b50919050565b7f4e487b7100000000000000000000000000000000000000000000000000000000600052602260045260246000fd5b61274080620001e56000396000f3fe6080604052600436106100e85760003560e01c806370a082311161008a578063a22cb46511610059578063a22cb465146102fb578063b88d4fde14610324578063c87b56dd1461034d578063e985e9c51461038a576100e8565b806370a082311461024a578063712319081461028757806390d7a893146102a557806395d89b41146102d0576100e8565b8063095ea7b3116100c6578063095ea7b31461019257806323b872dd146101bb57806342842e0e146101e45780636352211e1461020d576100e8565b806301ffc9a7146100ed57806306fdde031461012a578063081812fc14610155575b600080fd5b3480156100f957600080fd5b50610114600480360381019061010f9190611a10565b6103c7565b6040516101219190612108565b60405180910390f35b34801561013657600080fd5b5061013f6104a9565b60405161014c9190612123565b60405180910390f35b34801561016157600080fd5b5061017c60048036038101906101779190611a62565b61053b565b60405161018991906120a1565b60405180910390f35b34801561019e57600080fd5b506101b960048036038101906101b491906119d4565b6105c0565b005b3480156101c757600080fd5b506101e260048036038101906101dd91906118ce565b6106d8565b005b3480156101f057600080fd5b5061020b600480360381019061020691906118ce565b610738565b005b34801561021957600080fd5b50610234600480360381019061022f9190611a62565b610758565b60405161024191906120a1565b60405180910390f35b34801561025657600080fd5b50610271600480360381019061026c9190611869565b61080a565b60405161027e9190612305565b60405180910390f35b61028f6108c2565b60405161029c9190612305565b60405180910390f35b3480156102b157600080fd5b506102ba6108f2565b6040516102c79190612108565b60405180910390f35b3480156102dc57600080fd5b506102e56108ff565b6040516102f29190612123565b60405180910390f35b34801561030757600080fd5b50610322600480360381019061031d9190611998565b610991565b005b34801561033057600080fd5b5061034b6004803603810190610346919061191d565b6109a7565b005b34801561035957600080fd5b50610374600480360381019061036f9190611a62565b610a09565b6040516103819190612123565b60405180910390f35b34801561039657600080fd5b506103b160048036038101906103ac9190611892565b610ab0565b6040516103be9190612108565b60405180910390f35b60007f80ac58cd000000000000000000000000000000000000000000000000000000007bffffffffffffffffffffffffffffffffffffffffffffffffffffffff1916827bffffffffffffffffffffffffffffffffffffffffffffffffffffffff1916148061049257507f5b5e139f000000000000000000000000000000000000000000000000000000007bffffffffffffffffffffffffffffffffffffffffffffffffffffffff1916827bffffffffffffffffffffffffffffffffffffffffffffffffffffffff1916145b806104a257506104a182610b44565b5b9050919050565b6060600080546104b890612535565b80601f01602080910402602001604051908101604052809291908181526020018280546104e490612535565b80156105315780601f1061050657610100808354040283529160200191610531565b820191906000526020600020905b81548152906001019060200180831161051457829003601f168201915b5050505050905090565b600061054682610bae565b610585576040517f08c379a000000000000000000000000000000000000000000000000000000000815260040161057c90612265565b60405180910390fd5b6004600083815260200190815260200160002060009054906101000a900473ffffffffffffffffffffffffffffffffffffffff169050919050565b60006105cb82610758565b90508073ffffffffffffffffffffffffffffffffffffffff168373ffffffffffffffffffffffffffffffffffffffff16141561063c576040517f08c379a0000000000000000000000000000000000000000000000000000000008152600401610633906122c5565b60405180910390fd5b8073ffffffffffffffffffffffffffffffffffffffff1661065b610c1a565b73ffffffffffffffffffffffffffffffffffffffff16148061068a575061068981610684610c1a565b610ab0565b5b6106c9576040517f08c379a00000000000000000000000000000000000000000000000000000000081526004016106c0906121e5565b60405180910390fd5b6106d38383610c22565b505050565b6106e96106e3610c1a565b82610cdb565b610728576040517f08c379a000000000000000000000000000000000000000000000000000000000815260040161071f906122e5565b60405180910390fd5b610733838383610db9565b505050565b610753838383604051806020016040528060008152506109a7565b505050565b6000806002600084815260200190815260200160002060009054906101000a900473ffffffffffffffffffffffffffffffffffffffff169050600073ffffffffffffffffffffffffffffffffffffffff168173ffffffffffffffffffffffffffffffffffffffff161415610801576040517f08c379a00000000000000000000000000000000000000000000000000000000081526004016107f890612225565b60405180910390fd5b80915050919050565b60008073ffffffffffffffffffffffffffffffffffffffff168273ffffffffffffffffffffffffffffffffffffffff16141561087b576040517f08c379a000000000000000000000000000000000000000000000000000000000815260040161087290612205565b60405180910390fd5b600360008373ffffffffffffffffffffffffffffffffffffffff1673ffffffffffffffffffffffffffffffffffffffff168152602001908152602001600020549050919050565b60006108d033600654611015565b6001600660008282546108e391906123c4565b92505081905550600654905090565b6000600360065410905090565b60606001805461090e90612535565b80601f016020809104026020016040519081016040528092919081815260200182805461093a90612535565b80156109875780601f1061095c57610100808354040283529160200191610987565b820191906000526020600020905b81548152906001019060200180831161096a57829003601f168201915b5050505050905090565b6109a361099c610c1a565b8383611033565b5050565b6109b86109b2610c1a565b83610cdb565b6109f7576040517f08c379a00000000000000000000000000000000000000000000000000000000081526004016109ee906122e5565b60405180910390fd5b610a03848484846111a0565b50505050565b6060610a1482610bae565b610a53576040517f08c379a0000000000000000000000000000000000000000000000000000000008152600401610a4a906122a5565b60405180910390fd5b6000610a5d6111fc565b90506000815111610a7d5760405180602001604052806000815250610aa8565b80610a8784611213565b604051602001610a9892919061207d565b6040516020818303038152906040525b915050919050565b6000600560008473ffffffffffffffffffffffffffffffffffffffff1673ffffffffffffffffffffffffffffffffffffffff16815260200190815260200160002060008373ffffffffffffffffffffffffffffffffffffffff1673ffffffffffffffffffffffffffffffffffffffff16815260200190815260200160002060009054906101000a900460ff16905092915050565b60007f01ffc9a7000000000000000000000000000000000000000000000000000000007bffffffffffffffffffffffffffffffffffffffffffffffffffffffff1916827bffffffffffffffffffffffffffffffffffffffffffffffffffffffff1916149050919050565b60008073ffffffffffffffffffffffffffffffffffffffff166002600084815260200190815260200160002060009054906101000a900473ffffffffffffffffffffffffffffffffffffffff1673ffffffffffffffffffffffffffffffffffffffff1614159050919050565b600033905090565b816004600083815260200190815260200160002060006101000a81548173ffffffffffffffffffffffffffffffffffffffff021916908373ffffffffffffffffffffffffffffffffffffffff160217905550808273ffffffffffffffffffffffffffffffffffffffff16610c9583610758565b73ffffffffffffffffffffffffffffffffffffffff167f8c5be1e5ebec7d5bd14f71427d1e84f3dd0314c0f7b2291e5b200ac8c7c3b92560405160405180910390a45050565b6000610ce682610bae565b610d25576040517f08c379a0000000000000000000000000000000000000000000000000000000008152600401610d1c906121c5565b60405180910390fd5b6000610d3083610758565b90508073ffffffffffffffffffffffffffffffffffffffff168473ffffffffffffffffffffffffffffffffffffffff161480610d9f57508373ffffffffffffffffffffffffffffffffffffffff16610d878461053b565b73ffffffffffffffffffffffffffffffffffffffff16145b80610db05750610daf8185610ab0565b5b91505092915050565b8273ffffffffffffffffffffffffffffffffffffffff16610dd982610758565b73ffffffffffffffffffffffffffffffffffffffff1614610e2f576040517f08c379a0000000000000000000000000000000000000000000000000000000008152600401610e2690612285565b60405180910390fd5b600073ffffffffffffffffffffffffffffffffffffffff168273ffffffffffffffffffffffffffffffffffffffff161415610e9f576040517f08c379a0000000000000000000000000000000000000000000000000000000008152600401610e9690612185565b60405180910390fd5b610eaa8383836113c0565b610eb5600082610c22565b6001600360008573ffffffffffffffffffffffffffffffffffffffff1673ffffffffffffffffffffffffffffffffffffffff1681526020019081526020016000206000828254610f05919061244b565b925050819055506001600360008473ffffffffffffffffffffffffffffffffffffffff1673ffffffffffffffffffffffffffffffffffffffff1681526020019081526020016000206000828254610f5c91906123c4565b92505081905550816002600083815260200190815260200160002060006101000a81548173ffffffffffffffffffffffffffffffffffffffff021916908373ffffffffffffffffffffffffffffffffffffffff160217905550808273ffffffffffffffffffffffffffffffffffffffff168473ffffffffffffffffffffffffffffffffffffffff167fddf252ad1be2c89b69c2b068fc378daa952ba7f163c4a11628f55a4df523b3ef60405160405180910390a4505050565b61102f8282604051806020016040528060008152506113c5565b5050565b8173ffffffffffffffffffffffffffffffffffffffff168373ffffffffffffffffffffffffffffffffffffffff1614156110a2576040517f08c379a0000000000000000000000000000000000000000000000000000000008152600401611099906121a5565b60405180910390fd5b80600560008573ffffffffffffffffffffffffffffffffffffffff1673ffffffffffffffffffffffffffffffffffffffff16815260200190815260200160002060008473ffffffffffffffffffffffffffffffffffffffff1673ffffffffffffffffffffffffffffffffffffffff16815260200190815260200160002060006101000a81548160ff0219169083151502179055508173ffffffffffffffffffffffffffffffffffffffff168373ffffffffffffffffffffffffffffffffffffffff167f17307eab39ab6107e8899845ad3d59bd9653f200f220920489ca2b5937696c31836040516111939190612108565b60405180910390a3505050565b6111ab848484610db9565b6111b784848484611420565b6111f6576040517f08c379a00000000000000000000000000000000000000000000000000000000081526004016111ed90612145565b60405180910390fd5b50505050565b606060405180602001604052806000815250905090565b6060600082141561125b576040518060400160405280600181526020017f300000000000000000000000000000000000000000000000000000000000000081525090506113bb565b600082905060005b6000821461128d57808061127690612567565b915050600a82611286919061241a565b9150611263565b60008167ffffffffffffffff8111156112cf577f4e487b7100000000000000000000000000000000000000000000000000000000600052604160045260246000fd5b6040519080825280601f01601f1916602001820160405280156113015781602001600182028036833780820191505090505b5090505b600085146113b45760018261131a919061244b565b9150600a8561132991906125b0565b603061133591906123c4565b60f81b818381518110611371577f4e487b7100000000000000000000000000000000000000000000000000000000600052603260045260246000fd5b60200101907effffffffffffffffffffffffffffffffffffffffffffffffffffffffffffff1916908160001a905350600a856113ad919061241a565b9450611305565b8093505050505b919050565b505050565b6113cf83836115b7565b6113dc6000848484611420565b61141b576040517f08c379a000000000000000000000000000000000000000000000000000000000815260040161141290612145565b60405180910390fd5b505050565b60006114418473ffffffffffffffffffffffffffffffffffffffff16611785565b156115aa578373ffffffffffffffffffffffffffffffffffffffff1663150b7a0261146a610c1a565b8786866040518563ffffffff1660e01b815260040161148c94939291906120bc565b602060405180830381600087803b1580156114a657600080fd5b505af19250505080156114d757506040513d601f19601f820116820180604052508101906114d49190611a39565b60015b61155a573d8060008114611507576040519150601f19603f3d011682016040523d82523d6000602084013e61150c565b606091505b50600081511415611552576040517f08c379a000000000000000000000000000000000000000000000000000000000815260040161154990612145565b60405180910390fd5b805181602001fd5b63150b7a0260e01b7bffffffffffffffffffffffffffffffffffffffffffffffffffffffff1916817bffffffffffffffffffffffffffffffffffffffffffffffffffffffff1916149150506115af565b600190505b949350505050565b600073ffffffffffffffffffffffffffffffffffffffff168273ffffffffffffffffffffffffffffffffffffffff161415611627576040517f08c379a000000000000000000000000000000000000000000000000000000000815260040161161e90612245565b60405180910390fd5b61163081610bae565b15611670576040517f08c379a000000000000000000000000000000000000000000000000000000000815260040161166790612165565b60405180910390fd5b61167c600083836113c0565b6001600360008473ffffffffffffffffffffffffffffffffffffffff1673ffffffffffffffffffffffffffffffffffffffff16815260200190815260200160002060008282546116cc91906123c4565b92505081905550816002600083815260200190815260200160002060006101000a81548173ffffffffffffffffffffffffffffffffffffffff021916908373ffffffffffffffffffffffffffffffffffffffff160217905550808273ffffffffffffffffffffffffffffffffffffffff16600073ffffffffffffffffffffffffffffffffffffffff167fddf252ad1be2c89b69c2b068fc378daa952ba7f163c4a11628f55a4df523b3ef60405160405180910390a45050565b600080823b905060008111915050919050565b60006117ab6117a684612351565b612320565b9050828152602081018484840111156117c357600080fd5b6117ce8482856124f3565b509392505050565b6000813590506117e5816126ae565b92915050565b6000813590506117fa816126c5565b92915050565b60008135905061180f816126dc565b92915050565b600081519050611824816126dc565b92915050565b600082601f83011261183b57600080fd5b813561184b848260208601611798565b91505092915050565b600081359050611863816126f3565b92915050565b60006020828403121561187b57600080fd5b6000611889848285016117d6565b91505092915050565b600080604083850312156118a557600080fd5b60006118b3858286016117d6565b92505060206118c4858286016117d6565b9150509250929050565b6000806000606084860312156118e357600080fd5b60006118f1868287016117d6565b9350506020611902868287016117d6565b925050604061191386828701611854565b9150509250925092565b6000806000806080858703121561193357600080fd5b6000611941878288016117d6565b9450506020611952878288016117d6565b935050604061196387828801611854565b925050606085013567ffffffffffffffff81111561198057600080fd5b61198c8782880161182a565b91505092959194509250565b600080604083850312156119ab57600080fd5b60006119b9858286016117d6565b92505060206119ca858286016117eb565b9150509250929050565b600080604083850312156119e757600080fd5b60006119f5858286016117d6565b9250506020611a0685828601611854565b9150509250929050565b600060208284031215611a2257600080fd5b6000611a3084828501611800565b91505092915050565b600060208284031215611a4b57600080fd5b6000611a5984828501611815565b91505092915050565b600060208284031215611a7457600080fd5b6000611a8284828501611854565b91505092915050565b611a948161247f565b82525050565b611aa381612491565b82525050565b6000611ab482612381565b611abe8185612397565b9350611ace818560208601612502565b611ad78161269d565b840191505092915050565b6000611aed8261238c565b611af781856123a8565b9350611b07818560208601612502565b611b108161269d565b840191505092915050565b6000611b268261238c565b611b3081856123b9565b9350611b40818560208601612502565b80840191505092915050565b6000611b596032836123a8565b91507f4552433732313a207472616e7366657220746f206e6f6e20455243373231526560008301527f63656976657220696d706c656d656e74657200000000000000000000000000006020830152604082019050919050565b6000611bbf601c836123a8565b91507f4552433732313a20746f6b656e20616c7265616479206d696e746564000000006000830152602082019050919050565b6000611bff6024836123a8565b91507f4552433732313a207472616e7366657220746f20746865207a65726f2061646460008301527f72657373000000000000000000000000000000000000000000000000000000006020830152604082019050919050565b6000611c656019836123a8565b91507f4552433732313a20617070726f766520746f2063616c6c6572000000000000006000830152602082019050919050565b6000611ca5602c836123a8565b91507f4552433732313a206f70657261746f7220717565727920666f72206e6f6e657860008301527f697374656e7420746f6b656e00000000000000000000000000000000000000006020830152604082019050919050565b6000611d0b6038836123a8565b91507f4552433732313a20617070726f76652063616c6c6572206973206e6f74206f7760008301527f6e6572206e6f7220617070726f76656420666f7220616c6c00000000000000006020830152604082019050919050565b6000611d71602a836123a8565b91507f4552433732313a2062616c616e636520717565727920666f7220746865207a6560008301527f726f2061646472657373000000000000000000000000000000000000000000006020830152604082019050919050565b6000611dd76029836123a8565b91507f4552433732313a206f776e657220717565727920666f72206e6f6e657869737460008301527f656e7420746f6b656e00000000000000000000000000000000000000000000006020830152604082019050919050565b6000611e3d6020836123a8565b91507f4552433732313a206d696e7420746f20746865207a65726f20616464726573736000830152602082019050919050565b6000611e7d602c836123a8565b91507f4552433732313a20617070726f76656420717565727920666f72206e6f6e657860008301527f697374656e7420746f6b656e00000000000000000000000000000000000000006020830152604082019050919050565b6000611ee36029836123a8565b91507f4552433732313a207472616e73666572206f6620746f6b656e2074686174206960008301527f73206e6f74206f776e00000000000000000000000000000000000000000000006020830152604082019050919050565b6000611f49602f836123a8565b91507f4552433732314d657461646174613a2055524920717565727920666f72206e6f60008301527f6e6578697374656e7420746f6b656e00000000000000000000000000000000006020830152604082019050919050565b6000611faf6021836123a8565b91507f4552433732313a20617070726f76616c20746f2063757272656e74206f776e6560008301527f72000000000000000000000000000000000000000000000000000000000000006020830152604082019050919050565b60006120156031836123a8565b91507f4552433732313a207472616e736665722063616c6c6572206973206e6f74206f60008301527f776e6572206e6f7220617070726f7665640000000000000000000000000000006020830152604082019050919050565b612077816124e9565b82525050565b60006120898285611b1b565b91506120958284611b1b565b91508190509392505050565b60006020820190506120b66000830184611a8b565b92915050565b60006080820190506120d16000830187611a8b565b6120de6020830186611a8b565b6120eb604083018561206e565b81810360608301526120fd8184611aa9565b905095945050505050565b600060208201905061211d6000830184611a9a565b92915050565b6000602082019050818103600083015261213d8184611ae2565b905092915050565b6000602082019050818103600083015261215e81611b4c565b9050919050565b6000602082019050818103600083015261217e81611bb2565b9050919050565b6000602082019050818103600083015261219e81611bf2565b9050919050565b600060208201905081810360008301526121be81611c58565b9050919050565b600060208201905081810360008301526121de81611c98565b9050919050565b600060208201905081810360008301526121fe81611cfe565b9050919050565b6000602082019050818103600083015261221e81611d64565b9050919050565b6000602082019050818103600083015261223e81611dca565b9050919050565b6000602082019050818103600083015261225e81611e30565b9050919050565b6000602082019050818103600083015261227e81611e70565b9050919050565b6000602082019050818103600083015261229e81611ed6565b9050919050565b600060208201905081810360008301526122be81611f3c565b9050919050565b600060208201905081810360008301526122de81611fa2565b9050919050565b600060208201905081810360008301526122fe81612008565b9050919050565b600060208201905061231a600083018461206e565b92915050565b6000604051905081810181811067ffffffffffffffff821117156123475761234661266e565b5b8060405250919050565b600067ffffffffffffffff82111561236c5761236b61266e565b5b601f19601f8301169050602081019050919050565b600081519050919050565b600081519050919050565b600082825260208201905092915050565b600082825260208201905092915050565b600081905092915050565b60006123cf826124e9565b91506123da836124e9565b9250827fffffffffffffffffffffffffffffffffffffffffffffffffffffffffffffffff0382111561240f5761240e6125e1565b5b828201905092915050565b6000612425826124e9565b9150612430836124e9565b9250826124405761243f612610565b5b828204905092915050565b6000612456826124e9565b9150612461836124e9565b925082821015612474576124736125e1565b5b828203905092915050565b600061248a826124c9565b9050919050565b60008115159050919050565b60007fffffffff0000000000000000000000000000000000000000000000000000000082169050919050565b600073ffffffffffffffffffffffffffffffffffffffff82169050919050565b6000819050919050565b82818337600083830152505050565b60005b83811015612520578082015181840152602081019050612505565b8381111561252f576000848401525b50505050565b6000600282049050600182168061254d57607f821691505b602082108114156125615761256061263f565b5b50919050565b6000612572826124e9565b91507fffffffffffffffffffffffffffffffffffffffffffffffffffffffffffffffff8214156125a5576125a46125e1565b5b600182019050919050565b60006125bb826124e9565b91506125c6836124e9565b9250826125d6576125d5612610565b5b828206905092915050565b7f4e487b7100000000000000000000000000000000000000000000000000000000600052601160045260246000fd5b7f4e487b7100000000000000000000000000000000000000000000000000000000600052601260045260246000fd5b7f4e487b7100000000000000000000000000000000000000000000000000000000600052602260045260246000fd5b7f4e487b7100000000000000000000000000000000000000000000000000000000600052604160045260246000fd5b6000601f19601f8301169050919050565b6126b78161247f565b81146126c257600080fd5b50565b6126ce81612491565b81146126d957600080fd5b50565b6126e58161249d565b81146126f057600080fd5b50565b6126fc816124e9565b811461270757600080fd5b5056fea2646970667358221220112e697c2922cc967f8c9565c37d3e9b346cf687150bfb960063c7e9045d672e64736f6c63430008000033608060405234801561001057600080fd5b50610171806100206000396000f3fe6080604052600436106100295760003560e01c806312065fe01461002e578063d0e30db014610059575b600080fd5b34801561003a57600080fd5b50610043610063565b6040516100509190610091565b60405180910390f35b61006161006c565b005b60008054905090565b3460005461007a91906100ac565b600081905550565b61008b81610102565b82525050565b60006020820190506100a66000830184610082565b92915050565b60006100b782610102565b91506100c283610102565b9250827fffffffffffffffffffffffffffffffffffffffffffffffffffffffffffffffff038211156100f7576100f661010c565b5b828201905092915050565b6000819050919050565b7f4e487b7100000000000000000000000000000000000000000000000000000000600052601160045260246000fdfea26469706673582212203b3503b28dcfca7a4c08cd2ac4c96c388d70bf0740a99496b89ede93bce5060164736f6c63430008000033",
  "linkReferences": {},
  "deployedLinkReferences": {}
}