{
  "_format": "hh-sol-artifact-1",
  "contractName": "TPGMembershipToken",
  "sourceName": "contracts/TPG.sol",
  "abi": [
    {
      "inputs": [],
      "stateMutability": "nonpayable",
      "type": "constructor"
    },
    {
      "anonymous": false,
      "inputs": [
        {
          "indexed": true,
          "internalType": "address",
          "name": "owner",
          "type": "address"
        },
        {
          "indexed": true,
          "internalType": "address",
          "name": "approved",
          "type": "address"
        },
        {
          "indexed": true,
          "internalType": "uint256",
          "name": "tokenId",
          "type": "uint256"
        }
      ],
      "name": "Approval",
      "type": "event"
    },
    {
      "anonymous": false,
      "inputs": [
        {
          "indexed": true,
          "internalType": "address",
          "name": "owner",
          "type": "address"
        },
        {
          "indexed": true,
          "internalType": "address",
          "name": "operator",
          "type": "address"
        },
        {
          "indexed": false,
          "internalType": "bool",
          "name": "approved",
          "type": "bool"
        }
      ],
      "name": "ApprovalForAll",
      "type": "event"
    },
    {
      "anonymous": false,
      "inputs": [
        {
          "indexed": true,
          "internalType": "address",
          "name": "from",
          "type": "address"
        },
        {
          "indexed": true,
          "internalType": "address",
          "name": "to",
          "type": "address"
        },
        {
          "indexed": true,
          "internalType": "uint256",
          "name": "tokenId",
          "type": "uint256"
        }
      ],
      "name": "Transfer",
      "type": "event"
    },
    {
      "inputs": [
        {
          "internalType": "address",
          "name": "to",
          "type": "address"
        },
        {
          "internalType": "uint256",
          "name": "tokenId",
          "type": "uint256"
        }
      ],
      "name": "approve",
      "outputs": [],
      "stateMutability": "nonpayable",
      "type": "function"
    },
    {
      "inputs": [
        {
          "internalType": "address",
          "name": "owner",
          "type": "address"
        }
      ],
      "name": "balanceOf",
      "outputs": [
        {
          "internalType": "uint256",
          "name": "",
          "type": "uint256"
        }
      ],
      "stateMutability": "view",
      "type": "function"
    },
    {
      "inputs": [
        {
          "internalType": "uint256",
          "name": "tokenId",
          "type": "uint256"
        }
      ],
      "name": "getApproved",
      "outputs": [
        {
          "internalType": "address",
          "name": "",
          "type": "address"
        }
      ],
      "stateMutability": "view",
      "type": "function"
    },
    {
      "inputs": [
        {
          "internalType": "address",
          "name": "owner",
          "type": "address"
        },
        {
          "internalType": "address",
          "name": "operator",
          "type": "address"
        }
      ],
      "name": "isApprovedForAll",
      "outputs": [
        {
          "internalType": "bool",
          "name": "",
          "type": "bool"
        }
      ],
      "stateMutability": "view",
      "type": "function"
    },
    {
      "inputs": [],
      "name": "mintMembership",
      "outputs": [
        {
          "internalType": "uint256",
          "name": "",
          "type": "uint256"
        }
      ],
      "stateMutability": "payable",
      "type": "function"
    },
    {
      "inputs": [],
      "name": "name",
      "outputs": [
        {
          "internalType": "string",
          "name": "",
          "type": "string"
        }
      ],
      "stateMutability": "view",
      "type": "function"
    },
    {
      "inputs": [
        {
          "internalType": "uint256",
          "name": "tokenId",
          "type": "uint256"
        }
      ],
      "name": "ownerOf",
      "outputs": [
        {
          "internalType": "address",
          "name": "",
          "type": "address"
        }
      ],
      "stateMutability": "view",
      "type": "function"
    },
    {
      "inputs": [
        {
          "internalType": "address",
          "name": "from",
          "type": "address"
        },
        {
          "internalType": "address",
          "name": "to",
          "type": "address"
        },
        {
          "internalType": "uint256",
          "name": "tokenId",
          "type": "uint256"
        }
      ],
      "name": "safeTransferFrom",
      "outputs": [],
      "stateMutability": "nonpayable",
      "type": "function"
    },
    {
      "inputs": [
        {
          "internalType": "address",
          "name": "from",
          "type": "address"
        },
        {
          "internalType": "address",
          "name": "to",
          "type": "address"
        },
        {
          "internalType": "uint256",
          "name": "tokenId",
          "type": "uint256"
        },
        {
          "internalType": "bytes",
          "name": "_data",
          "type": "bytes"
        }
      ],
      "name": "safeTransferFrom",
      "outputs": [],
      "stateMutability": "nonpayable",
      "type": "function"
    },
    {
      "inputs": [
        {
          "internalType": "address",
          "name": "operator",
          "type": "address"
        },
        {
          "internalType": "bool",
          "name": "approved",
          "type": "bool"
        }
      ],
      "name": "setApprovalForAll",
      "outputs": [],
      "stateMutability": "nonpayable",
      "type": "function"
    },
    {
      "inputs": [
        {
          "internalType": "bytes4",
          "name": "interfaceId",
          "type": "bytes4"
        }
      ],
      "name": "supportsInterface",
      "outputs": [
        {
          "internalType": "bool",
          "name": "",
          "type": "bool"
        }
      ],
      "stateMutability": "view",
      "type": "function"
    },
    {
      "inputs": [],
      "name": "symbol",
      "outputs": [
        {
          "internalType": "string",
          "name": "",
          "type": "string"
        }
      ],
      "stateMutability": "view",
      "type": "function"
    },
    {
      "inputs": [
        {
          "internalType": "uint256",
          "name": "tokenId",
          "type": "uint256"
        }
      ],
      "name": "tokenURI",
      "outputs": [
        {
          "internalType": "string",
          "name": "",
          "type": "string"
        }
      ],
      "stateMutability": "view",
      "type": "function"
    },
    {
      "inputs": [
        {
          "internalType": "address",
          "name": "from",
          "type": "address"
        },
        {
          "internalType": "address",
          "name": "to",
          "type": "address"
        },
        {
          "internalType": "uint256",
          "name": "tokenId",
          "type": "uint256"
        }
      ],
      "name": "transferFrom",
      "outputs": [],
      "stateMutability": "nonpayable",
      "type": "function"
    }
  ],
  "bytecode": "0x60806040523480156200001157600080fd5b506040518060400160405280601b81526020017f5468652050656f706c6527732047796d204d656d6265727368697000000000008152506040518060400160405280600381526020017f5450470000000000000000000000000000000000000000000000000000000000815250816000908051906020019062000096929190620000c0565b508060019080519060200190620000af929190620000c0565b5050506000600681905550620001d5565b828054620000ce9062000170565b90600052602060002090601f016020900481019282620000f257600085556200013e565b82601f106200010d57805160ff19168380011785556200013e565b828001600101855582156200013e579182015b828111156200013d57825182559160200191906001019062000120565b5b5090506200014d919062000151565b5090565b5b808211156200016c57600081600090555060010162000152565b5090565b600060028204905060018216806200018957607f821691505b60208210811415620001a0576200019f620001a6565b5b50919050565b7f4e487b7100000000000000000000000000000000000000000000000000000000600052602260045260246000fd5b6127a280620001e56000396000f3fe6080604052600436106100dd5760003560e01c806370a082311161007f578063a22cb46511610059578063a22cb465146102c5578063b88d4fde146102ee578063c87b56dd14610317578063e985e9c514610354576100dd565b806370a082311461023f578063712319081461027c57806395d89b411461029a576100dd565b8063095ea7b3116100bb578063095ea7b31461018757806323b872dd146101b057806342842e0e146101d95780636352211e14610202576100dd565b806301ffc9a7146100e257806306fdde031461011f578063081812fc1461014a575b600080fd5b3480156100ee57600080fd5b5061010960048036038101906101049190611a12565b610391565b604051610116919061214a565b60405180910390f35b34801561012b57600080fd5b50610134610473565b6040516101419190612165565b60405180910390f35b34801561015657600080fd5b50610171600480360381019061016c9190611a64565b610505565b60405161017e91906120e3565b60405180910390f35b34801561019357600080fd5b506101ae60048036038101906101a991906119d6565b61058a565b005b3480156101bc57600080fd5b506101d760048036038101906101d291906118d0565b6106a2565b005b3480156101e557600080fd5b5061020060048036038101906101fb91906118d0565b610702565b005b34801561020e57600080fd5b5061022960048036038101906102249190611a64565b610722565b60405161023691906120e3565b60405180910390f35b34801561024b57600080fd5b506102666004803603810190610261919061186b565b6107d4565b6040516102739190612367565b60405180910390f35b61028461088c565b6040516102919190612367565b60405180910390f35b3480156102a657600080fd5b506102af610901565b6040516102bc9190612165565b60405180910390f35b3480156102d157600080fd5b506102ec60048036038101906102e7919061199a565b610993565b005b3480156102fa57600080fd5b506103156004803603810190610310919061191f565b6109a9565b005b34801561032357600080fd5b5061033e60048036038101906103399190611a64565b610a0b565b60405161034b9190612165565b60405180910390f35b34801561036057600080fd5b5061037b60048036038101906103769190611894565b610ab2565b604051610388919061214a565b60405180910390f35b60007f80ac58cd000000000000000000000000000000000000000000000000000000007bffffffffffffffffffffffffffffffffffffffffffffffffffffffff1916827bffffffffffffffffffffffffffffffffffffffffffffffffffffffff1916148061045c57507f5b5e139f000000000000000000000000000000000000000000000000000000007bffffffffffffffffffffffffffffffffffffffffffffffffffffffff1916827bffffffffffffffffffffffffffffffffffffffffffffffffffffffff1916145b8061046c575061046b82610b46565b5b9050919050565b60606000805461048290612597565b80601f01602080910402602001604051908101604052809291908181526020018280546104ae90612597565b80156104fb5780601f106104d0576101008083540402835291602001916104fb565b820191906000526020600020905b8154815290600101906020018083116104de57829003601f168201915b5050505050905090565b600061051082610bb0565b61054f576040517f08c379a0000000000000000000000000000000000000000000000000000000008152600401610546906122a7565b60405180910390fd5b6004600083815260200190815260200160002060009054906101000a900473ffffffffffffffffffffffffffffffffffffffff169050919050565b600061059582610722565b90508073ffffffffffffffffffffffffffffffffffffffff168373ffffffffffffffffffffffffffffffffffffffff161415610606576040517f08c379a00000000000000000000000000000000000000000000000000000000081526004016105fd90612327565b60405180910390fd5b8073ffffffffffffffffffffffffffffffffffffffff16610625610c1c565b73ffffffffffffffffffffffffffffffffffffffff16148061065457506106538161064e610c1c565b610ab2565b5b610693576040517f08c379a000000000000000000000000000000000000000000000000000000000815260040161068a90612227565b60405180910390fd5b61069d8383610c24565b505050565b6106b36106ad610c1c565b82610cdd565b6106f2576040517f08c379a00000000000000000000000000000000000000000000000000000000081526004016106e990612347565b60405180910390fd5b6106fd838383610dbb565b505050565b61071d838383604051806020016040528060008152506109a9565b505050565b6000806002600084815260200190815260200160002060009054906101000a900473ffffffffffffffffffffffffffffffffffffffff169050600073ffffffffffffffffffffffffffffffffffffffff168173ffffffffffffffffffffffffffffffffffffffff1614156107cb576040517f08c379a00000000000000000000000000000000000000000000000000000000081526004016107c290612267565b60405180910390fd5b80915050919050565b60008073ffffffffffffffffffffffffffffffffffffffff168273ffffffffffffffffffffffffffffffffffffffff161415610845576040517f08c379a000000000000000000000000000000000000000000000000000000000815260040161083c90612247565b60405180910390fd5b600360008373ffffffffffffffffffffffffffffffffffffffff1673ffffffffffffffffffffffffffffffffffffffff168152602001908152602001600020549050919050565b60006003600654106108d3576040517f08c379a00000000000000000000000000000000000000000000000000000000081526004016108ca90612307565b60405180910390fd5b6108df33600654611017565b6001600660008282546108f29190612426565b92505081905550600654905090565b60606001805461091090612597565b80601f016020809104026020016040519081016040528092919081815260200182805461093c90612597565b80156109895780601f1061095e57610100808354040283529160200191610989565b820191906000526020600020905b81548152906001019060200180831161096c57829003601f168201915b5050505050905090565b6109a561099e610c1c565b8383611035565b5050565b6109ba6109b4610c1c565b83610cdd565b6109f9576040517f08c379a00000000000000000000000000000000000000000000000000000000081526004016109f090612347565b60405180910390fd5b610a05848484846111a2565b50505050565b6060610a1682610bb0565b610a55576040517f08c379a0000000000000000000000000000000000000000000000000000000008152600401610a4c906122e7565b60405180910390fd5b6000610a5f6111fe565b90506000815111610a7f5760405180602001604052806000815250610aaa565b80610a8984611215565b604051602001610a9a9291906120bf565b6040516020818303038152906040525b915050919050565b6000600560008473ffffffffffffffffffffffffffffffffffffffff1673ffffffffffffffffffffffffffffffffffffffff16815260200190815260200160002060008373ffffffffffffffffffffffffffffffffffffffff1673ffffffffffffffffffffffffffffffffffffffff16815260200190815260200160002060009054906101000a900460ff16905092915050565b60007f01ffc9a7000000000000000000000000000000000000000000000000000000007bffffffffffffffffffffffffffffffffffffffffffffffffffffffff1916827bffffffffffffffffffffffffffffffffffffffffffffffffffffffff1916149050919050565b60008073ffffffffffffffffffffffffffffffffffffffff166002600084815260200190815260200160002060009054906101000a900473ffffffffffffffffffffffffffffffffffffffff1673ffffffffffffffffffffffffffffffffffffffff1614159050919050565b600033905090565b816004600083815260200190815260200160002060006101000a81548173ffffffffffffffffffffffffffffffffffffffff021916908373ffffffffffffffffffffffffffffffffffffffff160217905550808273ffffffffffffffffffffffffffffffffffffffff16610c9783610722565b73ffffffffffffffffffffffffffffffffffffffff167f8c5be1e5ebec7d5bd14f71427d1e84f3dd0314c0f7b2291e5b200ac8c7c3b92560405160405180910390a45050565b6000610ce882610bb0565b610d27576040517f08c379a0000000000000000000000000000000000000000000000000000000008152600401610d1e90612207565b60405180910390fd5b6000610d3283610722565b90508073ffffffffffffffffffffffffffffffffffffffff168473ffffffffffffffffffffffffffffffffffffffff161480610da157508373ffffffffffffffffffffffffffffffffffffffff16610d8984610505565b73ffffffffffffffffffffffffffffffffffffffff16145b80610db25750610db18185610ab2565b5b91505092915050565b8273ffffffffffffffffffffffffffffffffffffffff16610ddb82610722565b73ffffffffffffffffffffffffffffffffffffffff1614610e31576040517f08c379a0000000000000000000000000000000000000000000000000000000008152600401610e28906122c7565b60405180910390fd5b600073ffffffffffffffffffffffffffffffffffffffff168273ffffffffffffffffffffffffffffffffffffffff161415610ea1576040517f08c379a0000000000000000000000000000000000000000000000000000000008152600401610e98906121c7565b60405180910390fd5b610eac8383836113c2565b610eb7600082610c24565b6001600360008573ffffffffffffffffffffffffffffffffffffffff1673ffffffffffffffffffffffffffffffffffffffff1681526020019081526020016000206000828254610f0791906124ad565b925050819055506001600360008473ffffffffffffffffffffffffffffffffffffffff1673ffffffffffffffffffffffffffffffffffffffff1681526020019081526020016000206000828254610f5e9190612426565b92505081905550816002600083815260200190815260200160002060006101000a81548173ffffffffffffffffffffffffffffffffffffffff021916908373ffffffffffffffffffffffffffffffffffffffff160217905550808273ffffffffffffffffffffffffffffffffffffffff168473ffffffffffffffffffffffffffffffffffffffff167fddf252ad1be2c89b69c2b068fc378daa952ba7f163c4a11628f55a4df523b3ef60405160405180910390a4505050565b6110318282604051806020016040528060008152506113c7565b5050565b8173ffffffffffffffffffffffffffffffffffffffff168373ffffffffffffffffffffffffffffffffffffffff1614156110a4576040517f08c379a000000000000000000000000000000000000000000000000000000000815260040161109b906121e7565b60405180910390fd5b80600560008573ffffffffffffffffffffffffffffffffffffffff1673ffffffffffffffffffffffffffffffffffffffff16815260200190815260200160002060008473ffffffffffffffffffffffffffffffffffffffff1673ffffffffffffffffffffffffffffffffffffffff16815260200190815260200160002060006101000a81548160ff0219169083151502179055508173ffffffffffffffffffffffffffffffffffffffff168373ffffffffffffffffffffffffffffffffffffffff167f17307eab39ab6107e8899845ad3d59bd9653f200f220920489ca2b5937696c3183604051611195919061214a565b60405180910390a3505050565b6111ad848484610dbb565b6111b984848484611422565b6111f8576040517f08c379a00000000000000000000000000000000000000000000000000000000081526004016111ef90612187565b60405180910390fd5b50505050565b606060405180602001604052806000815250905090565b6060600082141561125d576040518060400160405280600181526020017f300000000000000000000000000000000000000000000000000000000000000081525090506113bd565b600082905060005b6000821461128f578080611278906125c9565b915050600a82611288919061247c565b9150611265565b60008167ffffffffffffffff8111156112d1577f4e487b7100000000000000000000000000000000000000000000000000000000600052604160045260246000fd5b6040519080825280601f01601f1916602001820160405280156113035781602001600182028036833780820191505090505b5090505b600085146113b65760018261131c91906124ad565b9150600a8561132b9190612612565b60306113379190612426565b60f81b818381518110611373577f4e487b7100000000000000000000000000000000000000000000000000000000600052603260045260246000fd5b60200101907effffffffffffffffffffffffffffffffffffffffffffffffffffffffffffff1916908160001a905350600a856113af919061247c565b9450611307565b8093505050505b919050565b505050565b6113d183836115b9565b6113de6000848484611422565b61141d576040517f08c379a000000000000000000000000000000000000000000000000000000000815260040161141490612187565b60405180910390fd5b505050565b60006114438473ffffffffffffffffffffffffffffffffffffffff16611787565b156115ac578373ffffffffffffffffffffffffffffffffffffffff1663150b7a0261146c610c1c565b8786866040518563ffffffff1660e01b815260040161148e94939291906120fe565b602060405180830381600087803b1580156114a857600080fd5b505af19250505080156114d957506040513d601f19601f820116820180604052508101906114d69190611a3b565b60015b61155c573d8060008114611509576040519150601f19603f3d011682016040523d82523d6000602084013e61150e565b606091505b50600081511415611554576040517f08c379a000000000000000000000000000000000000000000000000000000000815260040161154b90612187565b60405180910390fd5b805181602001fd5b63150b7a0260e01b7bffffffffffffffffffffffffffffffffffffffffffffffffffffffff1916817bffffffffffffffffffffffffffffffffffffffffffffffffffffffff1916149150506115b1565b600190505b949350505050565b600073ffffffffffffffffffffffffffffffffffffffff168273ffffffffffffffffffffffffffffffffffffffff161415611629576040517f08c379a000000000000000000000000000000000000000000000000000000000815260040161162090612287565b60405180910390fd5b61163281610bb0565b15611672576040517f08c379a0000000000000000000000000000000000000000000000000000000008152600401611669906121a7565b60405180910390fd5b61167e600083836113c2565b6001600360008473ffffffffffffffffffffffffffffffffffffffff1673ffffffffffffffffffffffffffffffffffffffff16815260200190815260200160002060008282546116ce9190612426565b92505081905550816002600083815260200190815260200160002060006101000a81548173ffffffffffffffffffffffffffffffffffffffff021916908373ffffffffffffffffffffffffffffffffffffffff160217905550808273ffffffffffffffffffffffffffffffffffffffff16600073ffffffffffffffffffffffffffffffffffffffff167fddf252ad1be2c89b69c2b068fc378daa952ba7f163c4a11628f55a4df523b3ef60405160405180910390a45050565b600080823b905060008111915050919050565b60006117ad6117a8846123b3565b612382565b9050828152602081018484840111156117c557600080fd5b6117d0848285612555565b509392505050565b6000813590506117e781612710565b92915050565b6000813590506117fc81612727565b92915050565b6000813590506118118161273e565b92915050565b6000815190506118268161273e565b92915050565b600082601f83011261183d57600080fd5b813561184d84826020860161179a565b91505092915050565b60008135905061186581612755565b92915050565b60006020828403121561187d57600080fd5b600061188b848285016117d8565b91505092915050565b600080604083850312156118a757600080fd5b60006118b5858286016117d8565b92505060206118c6858286016117d8565b9150509250929050565b6000806000606084860312156118e557600080fd5b60006118f3868287016117d8565b9350506020611904868287016117d8565b925050604061191586828701611856565b9150509250925092565b6000806000806080858703121561193557600080fd5b6000611943878288016117d8565b9450506020611954878288016117d8565b935050604061196587828801611856565b925050606085013567ffffffffffffffff81111561198257600080fd5b61198e8782880161182c565b91505092959194509250565b600080604083850312156119ad57600080fd5b60006119bb858286016117d8565b92505060206119cc858286016117ed565b9150509250929050565b600080604083850312156119e957600080fd5b60006119f7858286016117d8565b9250506020611a0885828601611856565b9150509250929050565b600060208284031215611a2457600080fd5b6000611a3284828501611802565b91505092915050565b600060208284031215611a4d57600080fd5b6000611a5b84828501611817565b91505092915050565b600060208284031215611a7657600080fd5b6000611a8484828501611856565b91505092915050565b611a96816124e1565b82525050565b611aa5816124f3565b82525050565b6000611ab6826123e3565b611ac081856123f9565b9350611ad0818560208601612564565b611ad9816126ff565b840191505092915050565b6000611aef826123ee565b611af9818561240a565b9350611b09818560208601612564565b611b12816126ff565b840191505092915050565b6000611b28826123ee565b611b32818561241b565b9350611b42818560208601612564565b80840191505092915050565b6000611b5b60328361240a565b91507f4552433732313a207472616e7366657220746f206e6f6e20455243373231526560008301527f63656976657220696d706c656d656e74657200000000000000000000000000006020830152604082019050919050565b6000611bc1601c8361240a565b91507f4552433732313a20746f6b656e20616c7265616479206d696e746564000000006000830152602082019050919050565b6000611c0160248361240a565b91507f4552433732313a207472616e7366657220746f20746865207a65726f2061646460008301527f72657373000000000000000000000000000000000000000000000000000000006020830152604082019050919050565b6000611c6760198361240a565b91507f4552433732313a20617070726f766520746f2063616c6c6572000000000000006000830152602082019050919050565b6000611ca7602c8361240a565b91507f4552433732313a206f70657261746f7220717565727920666f72206e6f6e657860008301527f697374656e7420746f6b656e00000000000000000000000000000000000000006020830152604082019050919050565b6000611d0d60388361240a565b91507f4552433732313a20617070726f76652063616c6c6572206973206e6f74206f7760008301527f6e6572206e6f7220617070726f76656420666f7220616c6c00000000000000006020830152604082019050919050565b6000611d73602a8361240a565b91507f4552433732313a2062616c616e636520717565727920666f7220746865207a6560008301527f726f2061646472657373000000000000000000000000000000000000000000006020830152604082019050919050565b6000611dd960298361240a565b91507f4552433732313a206f776e657220717565727920666f72206e6f6e657869737460008301527f656e7420746f6b656e00000000000000000000000000000000000000000000006020830152604082019050919050565b6000611e3f60208361240a565b91507f4552433732313a206d696e7420746f20746865207a65726f20616464726573736000830152602082019050919050565b6000611e7f602c8361240a565b91507f4552433732313a20617070726f76656420717565727920666f72206e6f6e657860008301527f697374656e7420746f6b656e00000000000000000000000000000000000000006020830152604082019050919050565b6000611ee560298361240a565b91507f4552433732313a207472616e73666572206f6620746f6b656e2074686174206960008301527f73206e6f74206f776e00000000000000000000000000000000000000000000006020830152604082019050919050565b6000611f4b602f8361240a565b91507f4552433732314d657461646174613a2055524920717565727920666f72206e6f60008301527f6e6578697374656e7420746f6b656e00000000000000000000000000000000006020830152604082019050919050565b6000611fb160198361240a565b91507f416c6c206d656d626572736869707320636f6e73756d65642e000000000000006000830152602082019050919050565b6000611ff160218361240a565b91507f4552433732313a20617070726f76616c20746f2063757272656e74206f776e6560008301527f72000000000000000000000000000000000000000000000000000000000000006020830152604082019050919050565b600061205760318361240a565b91507f4552433732313a207472616e736665722063616c6c6572206973206e6f74206f60008301527f776e6572206e6f7220617070726f7665640000000000000000000000000000006020830152604082019050919050565b6120b98161254b565b82525050565b60006120cb8285611b1d565b91506120d78284611b1d565b91508190509392505050565b60006020820190506120f86000830184611a8d565b92915050565b60006080820190506121136000830187611a8d565b6121206020830186611a8d565b61212d60408301856120b0565b818103606083015261213f8184611aab565b905095945050505050565b600060208201905061215f6000830184611a9c565b92915050565b6000602082019050818103600083015261217f8184611ae4565b905092915050565b600060208201905081810360008301526121a081611b4e565b9050919050565b600060208201905081810360008301526121c081611bb4565b9050919050565b600060208201905081810360008301526121e081611bf4565b9050919050565b6000602082019050818103600083015261220081611c5a565b9050919050565b6000602082019050818103600083015261222081611c9a565b9050919050565b6000602082019050818103600083015261224081611d00565b9050919050565b6000602082019050818103600083015261226081611d66565b9050919050565b6000602082019050818103600083015261228081611dcc565b9050919050565b600060208201905081810360008301526122a081611e32565b9050919050565b600060208201905081810360008301526122c081611e72565b9050919050565b600060208201905081810360008301526122e081611ed8565b9050919050565b6000602082019050818103600083015261230081611f3e565b9050919050565b6000602082019050818103600083015261232081611fa4565b9050919050565b6000602082019050818103600083015261234081611fe4565b9050919050565b600060208201905081810360008301526123608161204a565b9050919050565b600060208201905061237c60008301846120b0565b92915050565b6000604051905081810181811067ffffffffffffffff821117156123a9576123a86126d0565b5b8060405250919050565b600067ffffffffffffffff8211156123ce576123cd6126d0565b5b601f19601f8301169050602081019050919050565b600081519050919050565b600081519050919050565b600082825260208201905092915050565b600082825260208201905092915050565b600081905092915050565b60006124318261254b565b915061243c8361254b565b9250827fffffffffffffffffffffffffffffffffffffffffffffffffffffffffffffffff0382111561247157612470612643565b5b828201905092915050565b60006124878261254b565b91506124928361254b565b9250826124a2576124a1612672565b5b828204905092915050565b60006124b88261254b565b91506124c38361254b565b9250828210156124d6576124d5612643565b5b828203905092915050565b60006124ec8261252b565b9050919050565b60008115159050919050565b60007fffffffff0000000000000000000000000000000000000000000000000000000082169050919050565b600073ffffffffffffffffffffffffffffffffffffffff82169050919050565b6000819050919050565b82818337600083830152505050565b60005b83811015612582578082015181840152602081019050612567565b83811115612591576000848401525b50505050565b600060028204905060018216806125af57607f821691505b602082108114156125c3576125c26126a1565b5b50919050565b60006125d48261254b565b91507fffffffffffffffffffffffffffffffffffffffffffffffffffffffffffffffff82141561260757612606612643565b5b600182019050919050565b600061261d8261254b565b91506126288361254b565b92508261263857612637612672565b5b828206905092915050565b7f4e487b7100000000000000000000000000000000000000000000000000000000600052601160045260246000fd5b7f4e487b7100000000000000000000000000000000000000000000000000000000600052601260045260246000fd5b7f4e487b7100000000000000000000000000000000000000000000000000000000600052602260045260246000fd5b7f4e487b7100000000000000000000000000000000000000000000000000000000600052604160045260246000fd5b6000601f19601f8301169050919050565b612719816124e1565b811461272457600080fd5b50565b612730816124f3565b811461273b57600080fd5b50565b612747816124ff565b811461275257600080fd5b50565b61275e8161254b565b811461276957600080fd5b5056fea264697066735822122047e28cdb97afb0f66b997356af58a08c455a09a51c9c17537834828db7f5c40764736f6c63430008000033",
  "linkReferences": {},
  "deployedLinkReferences": {}
}