{
  "_format": "hh-sol-artifact-1",
  "contractName": "Treasury",
  "sourceName": "contracts/TPG.sol",
  "abi": [
    {
      "inputs": [],
      "name": "deposit",
      "outputs": [],
      "stateMutability": "payable",
      "type": "function"
    },
    {
      "inputs": [],
      "name": "getBalance",
      "outputs": [
        {
          "internalType": "uint256",
          "name": "",
          "type": "uint256"
        }
      ],
      "stateMutability": "view",
      "type": "function"
    }
  ],
  "bytecode": "0x608060405234801561001057600080fd5b50610171806100206000396000f3fe6080604052600436106100295760003560e01c806312065fe01461002e578063d0e30db014610059575b600080fd5b34801561003a57600080fd5b50610043610063565b6040516100509190610091565b60405180910390f35b61006161006c565b005b60008054905090565b3460005461007a91906100ac565b600081905550565b61008b81610102565b82525050565b60006020820190506100a66000830184610082565b92915050565b60006100b782610102565b91506100c283610102565b9250827fffffffffffffffffffffffffffffffffffffffffffffffffffffffffffffffff038211156100f7576100f661010c565b5b828201905092915050565b6000819050919050565b7f4e487b7100000000000000000000000000000000000000000000000000000000600052601160045260246000fdfea2646970667358221220179c136397f30a009cd26fd48619deccf074154347391196a681d45e132e978264736f6c63430008000033",
  "linkReferences": {},
  "deployedLinkReferences": {}
}