{
  "_format": "hh-sol-artifact-1",
  "contractName": "Treasury",
  "sourceName": "contracts/TPG.sol",
  "abi": [
    {
      "inputs": [],
      "name": "deposit",
      "outputs": [],
      "stateMutability": "payable",
      "type": "function"
    },
    {
      "inputs": [],
      "name": "getBalance",
      "outputs": [
        {
          "internalType": "uint256",
          "name": "",
          "type": "uint256"
        }
      ],
      "stateMutability": "view",
      "type": "function"
    },
    {
      "inputs": [],
      "name": "totalReserves",
      "outputs": [
        {
          "internalType": "uint256",
          "name": "",
          "type": "uint256"
        }
      ],
      "stateMutability": "view",
      "type": "function"
    }
  ],
  "bytecode": "0x608060405234801561001057600080fd5b5061037c806100206000396000f3fe6080604052600436106100345760003560e01c806312065fe0146100395780638f840ddd14610064578063d0e30db01461008f575b600080fd5b34801561004557600080fd5b5061004e610099565b60405161005b919061023c565b60405180910390f35b34801561007057600080fd5b506100796100a2565b604051610086919061023c565b60405180910390f35b6100976100a8565b005b60008054905090565b60005481565b346000546100b69190610273565b6000819055506100fd6040518060400160405280601081526020017f546f74616c2072657365727665733a20000000000000000000000000000000008152506000546100ff565b565b610197828260405160240161011592919061020c565b6040516020818303038152906040527f9710a9d0000000000000000000000000000000000000000000000000000000007bffffffffffffffffffffffffffffffffffffffffffffffffffffffff19166020820180517bffffffffffffffffffffffffffffffffffffffffffffffffffffffff838183161783525050505061019b565b5050565b60008151905060006a636f6e736f6c652e6c6f679050602083016000808483855afa5050505050565b60006101cf82610257565b6101d98185610262565b93506101e98185602086016102d3565b6101f281610335565b840191505092915050565b610206816102c9565b82525050565b6000604082019050818103600083015261022681856101c4565b905061023560208301846101fd565b9392505050565b600060208201905061025160008301846101fd565b92915050565b600081519050919050565b600082825260208201905092915050565b600061027e826102c9565b9150610289836102c9565b9250827fffffffffffffffffffffffffffffffffffffffffffffffffffffffffffffffff038211156102be576102bd610306565b5b828201905092915050565b6000819050919050565b60005b838110156102f15780820151818401526020810190506102d6565b83811115610300576000848401525b50505050565b7f4e487b7100000000000000000000000000000000000000000000000000000000600052601160045260246000fd5b6000601f19601f830116905091905056fea264697066735822122061f1310dcf2e0b07e972c875701f6e97ade926ed1d9af643e27e1993873922ca64736f6c63430008000033",
  "linkReferences": {},
  "deployedLinkReferences": {}
}